:020000040000FA
:10000000F02F0000CD030000D1030000D303000057
:1000100000000000000000000000000000000000E0
:10002000000000000000000000000000D5030000F8
:10003000D703000000000000D9030000DB0300002C
:10004000DD030000DD030000DD0300000000000010
:1000500000000000DD030000DD030000DD03000000
:10006000DD030000DD030000DD030000DD03000010
:10007000DD030000DD030000DD03000000000000E0
:1000800000000000DD030000DD030000DD030000D0
:10009000DD030000DD030000DD030000DD030000E0
:1000A000DD030000DD030000DD030000DD030000D0
:1000B000DD030000DD0300000448854600F02AFA55
:1000C0000048004761150000C046C046F02F000000
:1000D00040BA7047C0BA704770B404680568AC4352
:1000E0000568AC4300BF056806682C400568B4434A
:1000F000AC4305682C400C42EFD001256D0200BFD7
:1001000000BF00BF00BF00BF04682C42FCD000BF8E
:1001100004680C4204D100BF00BF00BF00BF00BF95
:1001200000BF00BF00BF00BF00BF00BF70BC704772
:1001300000BF30B55B180FB400F098FB0FBC00BFD8
:10014000013A00BF00BF00BF00BF00BF00BF00BF3B
:1001500000BFF5DA02780A7000BF00BF02784A706B
:1001600000BF00BF02788A70033100BF02780A70B6
:10017000994202784A70F5DB05682542FCD130BD12
:1001800030B55B005B180FB400F070FB0FBC013A98
:1001900000BF00BF00BF00BF00BF00BF00BF00BF67
:1001A000F5DA027800BF00BF00BF00BF047800BFCF
:1001B00000BF00BF00BF0578AD1800BF0D800578F7
:1001C0002D1900BF4D800278043100BF00BF00BF71
:1001D00004789942EFDB30BDF0B4D71800240559FC
:1001E0000E59AD19AD0815702D0C5570023204343E
:1001F000BA42F4DBF0BC704730B50FB400F036FB08
:100200000FBC00BF00BF00BF00BF00BF00BF00BFEA
:1002100000BF00BF00BF0478891800BF00BF00BF47
:1002200005781C70157004789C708A4206DA047890
:10023000947004320433047800BFF1E730BD00BF8E
:10024000704700BF00BF704700BF00BF00BF7047CE
:1002500000BF00BF00BF00BF7047000040BA70473A
:10026000C0BA7047F0B5D20052180FB400F0FEFAD1
:100270000FBC00BF00BF00BF00BF00BF00BF00BF7A
:1002800000BF00BF00BF037876407F4000BF00BFC3
:1002900004781D197F194F802F461C1B3619360410
:1002A0004E602646E405A40E0C8008310378914286
:1002B000EEDB01277F0203683B42FCD1F0BDFEB5B7
:1002C000089CE400A1460FB400F0D0FA0FBC00BFB8
:1002D00000BF00BF00BF00BF00BF00BF00BF8C4613
:1002E0000024057800BF00BF00BF083C0678083432
:1002F0004C454BDA751BAA46ED10AD062D0D195B6A
:100300002943575CB04600BF00BF0578002FEDD0F1
:10031000083400BF06784C4538DA00BF751BAA4484
:10032000ED10AD062D0D195D2943515CB04400BFA1
:1003300056460578B942D9D16546AE802743023486
:10034000195B4144E980023419593943296000BFDF
:1003500008218C440C3400BF00BF00BF00BF00BFA9
:1003600000BF00BF00BF00BF00BF00BF00BF00BF95
:1003700000BF00BF00BF00BF00BF00BF00BF00BF85
:1003800000BF00BF00BF057800BFAFE701256D02C9
:1003900006682E42FCD10099099A0A9BDB009B1843
:1003A0000B9CE400A41861450AD0086818604868EE
:1003B0005860083108339C4200D0F4E7099BF2E70B
:1003C00060460099401AC008FEBD0000044800477E
:1003D000FEE7FEE7FEE7FEE7FEE7FEE7FEE70000DA
:1003E000B90000007046704703460B439B0703D0DB
:1003F00009E008C9121F08C0042AFAD203E00B78EA
:100400000370401C491C521EF9D27047D2B201E061
:100410000270401C491EFBD270470022F6E710B55F
:1004200013460A4604461946FFF7F0FF204610BD62
:10043000421C0178401C0029FBD1801A704710B57E
:10044000002200E0521C835C8C5CA34201D1002B93
:10045000F8D1D8B2E1B2401A10BDCB0FDB0749008A
:1004600010B5490802460A4307D00A0D07240903BC
:10047000E401090B121B002A01DC002010BDC90099
:10048000440F0C43C100E018D205801800F001F8B9
:1004900010BD002904DA401C490001D14008400089
:1004A000704770B40024050C05D11024000402D15B
:1004B000002921D01124050E01D100020834050FB6
:1004C00001D10001241D850F01D18000A41C00284A
:1004D00001DB4000641C002908D020252E1B0D469E
:1004E000F540A14000D001212943084301061B1B10
:1004F000000ADB1D02D5002070BC7047DB05181810
:1005000080180029F8DA401C4900F5D170BC400879
:1005100040007047064C0125064E05E0E36807CC15
:100520002B430C3C98471034B442F7D3FFF7C8FD77
:10053000981A0000B81A000013B5044601231A46A1
:1005400001A9204600F00FF81CBD70B506460D4607
:100550002C4604E02178641C3046FFF7EDFF20783C
:100560000028F7D170BDFFB5019E029B03980128BA
:1005700023D100241EE00027FF4303E0002F00D119
:1005800006E07F1E00984069202108400028F5D031
:1005900000BF002F00D10FE0102507E03178761C56
:1005A000009800F027F86D1E5B1E641C002D01D022
:1005B000002BF3D1002BDED119E0002414E00098C9
:1005C000406920210840002800D10FE0102507E0F5
:1005D0003178761C009800F00DF85B1E6D1E641CCF
:1005E000002D01D0002BF3D1002BE8D100BF204615
:1005F00004B0F0BD044A904202D1CAB2026001E0E8
:10060000CAB20260704700000020084002E008C83B
:10061000121F08C1002AFAD170477047002001E07C
:1006200001C1121F002AFBD170470000F0B585B050
:1006300005468A48006804460C3406E12968081D0E
:1006400028600E78002E00D100E103942046641C3F
:10065000834909680E543746402130468843064690
:10066000012E09D12A68111D2960117848B27C49F0
:1006700009680855641CD1E0022E17D12A68111DA3
:100680002960118808B2E107C90F002903D0610869
:100690004900891C00E021460C46611E704A126820
:1006A00057546F4909680853A41CB7E0042E01D0C1
:1006B000642F16D12A68111D29601068A107890FBF
:1006C000002903D0A1088900091D00E021460C463D
:1006D000611E634A12685754614909680851241D14
:1006E0009CE0142E20D12868C01DC008C00001461F
:1006F000083028600A6849681046FFF7AEFE01908E
:10070000A007800F002803D0A0088000001D00E093
:1007100020460446601E524909680F54504901980A
:1007200009680851241D79E0A12E24D12968081DEB
:100730002860086801900198FFF77AFE401C00903D
:1007400000980119474800680838814209D9009982
:10075000081900F0BFFF0490002802DA049805B0E1
:10076000F0BD3F4909680819009A0199FFF73CFE5E
:100770000098241852E08020304000284BD03007E9
:10078000000F01902968081D286008680090A007E4
:10079000800F002803D0A0088000001D00E0204644
:1007A0000446601E2E4909680F542D4900980968B7
:1007B0000851241D0198401E2040002806D00198B1
:1007C000401E214681430198081800E02046044657
:1007D0000199009848430090009801192148006849
:1007E0000838814208D90099081900F073FF049075
:1007F000002801DA0498B2E72968081D2860086813
:100800000290174909680819009A0299FFF7ECFD50
:100810000098241802E00220C043A0E712480068B4
:10082000002804D140203840002800D0039C0D4807
:1008300000680838A04208D20A48006800F04AFF61
:100840000490002801DA049889E7F7E600BF204603
:100850000C3802490860002081E7000014200000E5
:1008600010200000182000002020000010B50423F4
:10087000024AD9020248FFF72FFC10BD14610F4055
:1008800004610F400FB438B505A800906846FFF723
:10089000CDFE044600200090204638BC08BC04B0C1
:1008A000184700207047000010B500201449086068
:1008B0001449086014490860022000F095FD1349AE
:1008C0000860012000F090FD1149086000F088FDEB
:1008D0001049088020201049088009880C225143C3
:1008E000084600F057FE0D4908600B4800880C22AE
:1008F0005043014609480068FFF78FFD002010BDF6
:100900000C2000001C200000202000001820000007
:10091000102000000A200000082000000420000031
:1009200010B58EB0002408E001AA68463021415E6F
:1009300008A8007D00F03AFC641C002301AA0CA961
:100940000DA800F0CBFE0028EED020460EB010BD62
:1009500070B504460D462946204601F065F800288A
:1009600002DA0020C04370BD0020FCE708B5034652
:10097000684600F0EBFF00BF009800F0D1F9984204
:10098000FAD308BD00B5034600F028F800281EDDA4
:10099000104909684888411C0E4A1268518042007B
:1009A0000C49096808318B520A4800688088401C4D
:1009B00008490968888007480068408806498842D5
:1009C00003D10020034909684880012000BD0020B0
:1009D000FCE7000000200000FC1D00000548006846
:1009E0008088044A1268D288801A81B20248401A6C
:1009F00080B2704700200000FC1D000010B50749C0
:100A000007A0FFF7A5FF074907A0FFF7A1FF0849C7
:100A100008A0FFF79DFF002010BD0000B10A0000F4
:100A200072756E00E10A000073746F7000000000C0
:100A3000D50A000072756E6E696E670031E001E0E4
:100A4000FFF76EFF174800780028F9D016480078A5
:100A5000002802D100F080FF08E013480078012848
:100A600002D100F07BFF01E000F082FF13E00E48AE
:100A70000078002802D100F029FD08E00A4800783B
:100A8000012802D100F04AFD01E000F05BFD00F01A
:100A9000B5FFFFF745FF034800780028E7D1034979
:100AA0000870CCE72520000026200000242000004C
:100AB0000146087840B2044A10700120034A1070C1
:100AC000034A1070002070472620000025200000F7
:100AD0002420000001480078704700002420000016
:100AE00000200149087070472520000010B5094911
:100AF00009A0FFF72DFF0B490BA0FFF729FF0D49B8
:100B00000DA0FFF725FF0F490FA0FFF721FF0020E1
:100B100010BD0000B90B00006765744672616D6519
:100B200000000000AD0B00006765744564676573E5
:100B300000000000310D000067657454696D696E36
:100B400067000000351900007365744564676550DF
:100B50006172616D7300000010B5002823D0124B44
:100B60000022001F196803E0814203D80A46496841
:100B70000029F9D1002A0AD01368841A9C4204D1B2
:100B8000006818181060104602E0506000E018601D
:100B9000002907D002680B1A934203D10B68D218C0
:100BA00002604968416010BD6020000010B5006817
:100BB00000F068F910BD0000F8B50078069E000945
:100BC000079D022804D001280DD00020C043F8BDA5
:100BD000086800902D883488198810882B46224692
:100BE00000F0F6F822E01088009037882E880D6813
:100BF0000F491C880869401C086180070D49000FD7
:100C0000085880470098400800900120204300F0D9
:100C1000B3FE0024002E09D93B4629460648009A17
:100C2000FFF787FAED19641CB442F5D30020F8BD34
:100C3000302000004C20000004610F40F0B58BB064
:100C400005460E4630680A9000216846C1834183FC
:100C500081830183491E01820021C18241828182F8
:100C6000286809906B21C900286840180890012065
:100C700000F082FE002745E000F0F2FC6B280ADA63
:100C80000120C0436946088204A800F0B9FC002096
:100C9000C0430BB0F0BD06A800F0B2FC9E221D4878
:100CA0000899FFF7DFFA1C4A1C48006840881B4976
:100CB000096808319E230093039201910290154820
:100CC000089B0A9A0999FFF7FAFA04461348006844
:100CD0004088001911490968488010480068408818
:100CE0000D49884206D30D4800684088401A0B49D8
:100CF0000968488009480068808800190749096820
:100D000088807F1CD02FB7D304A800F079FC002086
:100D1000BFE7000004610F407F0700005C20000077
:100D20000146024A9268501A7047000000300C4099
:100D300030B5254C89B06068C004FCD56068C0043B
:100D4000FCD406A800F002FE6068C004FCD506983A
:100D5000FFF7E6FF1D4D688106A800F0F7FD60680B
:100D60008005FCD560688005FCD407A800F0EEFD86
:100D700060688005FCD50798FFF7D2FFE88007A8D8
:100D800000F0E4FD60688005FCD40798FFF7C8FF19
:100D900028816068C004FCD40698FFF7C1FF81B2C7
:100DA000A9816B890220002202930592049103908D
:100DB00029890091019003460146EA880020FFF747
:100DC00061FD002009B030BD00610F4030200000FF
:100DD000FFB5284883B0C0070C9F264800D0801C70
:100DE00000904800401C00F0C7FD06980025002830
:100DF0003ED905980099400002904418059881005A
:100E00000098081801901C4845801C48059B039ACF
:100E10000099FFF7B5F91A4E70688005FCD4214699
:100E20001648059B039AFFF7ABF970688005FCD460
:100E3000124E059B3046039A0199FFF7A1F93A46F5
:100E4000059B01990098FFF7C7F93046059B039A67
:100E50000099FFF795F90598059B3A1820460099E7
:100E6000FFF7BAF90298AD1CC71906988542CAD394
:100E700007B0F0BD6820000000FC002004610F40B6
:100E800000610F40F1B594B0C0491498C04C4018AF
:100E90000A90E08841004218218940184B008000E8
:100EA000D218C01ED21E0C900F9264200590012013
:100EB00000F062FD0020099001201190B54E149AB7
:100EC0009F2189003046521C0A9BFFF795F9341F79
:100ED00060688005FCD40A9A9F2189003046521C24
:100EE000149BFFF789F960688005FCD411980028ED
:100EF0007ED00EA800F02AFDA748149C0168084681
:100F0000083012904D88FFF769FDFF21A731884214
:100F100006D2FF200002FFF735FD0020119075E09A
:100F2000FF216A001298090281526D1C01209B4E1C
:100F3000A9B28646B14200D10021954D9F222B884F
:100F40009200D21A6B8800209C46AB8807935B42C4
:100F50000D93C043634612B25B42401C00B2904204
:100F60004DDA8B4D265C2D884519655DAD1BAB4276
:100F700002DA6545F1DB21E00126F603054635433B
:100F80004F00129E491CF55375466D1CADB2AE461E
:100F9000824D89B2A94200D100217D4D801C2E884E
:100FA00000B2401C00B2904229DA8519655D275CC9
:100FB000ED1B0D9FAF42D0DB6545F2DB4E00129D6D
:100FC000491CA85375466D1CADB2AE46734D89B22F
:100FD000A94200D100216E4D801C2E8800B2401C19
:100FE00000B290420BDA8519655D275CED1B00E0CD
:100FF00097E0079FBD42B0DBAB42F0DBBCE7664841
:10100000006841808288714651188180604800885C
:10101000401D81080998814256D8149801905E4875
:101020000068044608344588FFF7D8FCFF21A73143
:1010300088425B4804D2FFF7A5FC0020119043E0F2
:10104000690060526D1C554FA8B20122B84200D110
:1010500000204F4B9F261D88B6006D1DAD087543BF
:10106000019E5B880321C943761B9C465D42091D96
:101070009F2309B29B00994220DA019B775C5B5C5D
:10108000DB1B9D420CDA6345F1DB4300E152401C5F
:10109000521C424B80B292B29842E8D10020E6E75F
:1010A0000127FF030B463B434700E353401C521C00
:1010B0003A4B80B292B29842D9D1EFE736490968EB
:1010C00048808888801888800E98FFF729FE0F993D
:1010D000081A1ED50C9944180EA800F037FC099880
:1010E0009F21401C09901498890040181490FF20FB
:1010F0000002FFF747FC26480088401D8108099838
:10110000814202D82648FFF73DFC0E98FFF708FE03
:10111000201A0599814236DC00281FDDFFF726FCE6
:101120001CE0FF200002FFF72DFC19480088401D3D
:1011300081080998814202D81948FFF723FC194910
:101140000998488060688005FCD560688005FCD4FB
:1011500060688005FCD560688005FCD41149099859
:10116000488009989F21401C0990149889004018D4
:1011700014900998682800D2A0E60B48FFF702FCFB
:10118000002015B0F0BD0590C6E700007002010018
:101190003020000004610F4000200000FC1D000012
:1011A00001FF000000FC0020FFFF0000F7B58AB03F
:1011B0000746144600200890042069490860202052
:1011C0003840002813D0A02F05D16168206800F0B6
:1011D000CFF80890A5E0A12F05D16168206800F044
:1011E000D9F808909DE00020C0430DB0F0BD5D49E6
:1011F00009880B98884202DB0020C043F5E70C21E8
:101200000B9848435849096840184668002E01D198
:10121000701EEAE7002501E0681CC5B2A80020584E
:101220000028F9D1002D02D1B047089079E0012DB6
:1012300003D12068B047089073E0022D04D16168A3
:101240002068B04708906CE0032D04D1204607C801
:10125000B047089065E0042D06D1211D0EC9079105
:101260002068B04708905CE0052D08D12069009007
:10127000211D0EC907912068B047089051E0062D46
:1012800009D1616920690191009020460FC807903B
:10129000B047089045E0072D0DD162692169A0692A
:1012A000019200910290E368A26807926168206849
:1012B000B047089035E0082D0DD163692269A16916
:1012C000E069019300920291039020460FC80790B5
:1012D000B047089025E0092D10D1A3696269E16942
:1012E000206A029301920391049020690090211DCD
:1012F0000EC907912068B047089012E00A2D10D15E
:10130000E369A269216A606A0393029204910590DD
:10131000616920690191009020460FC80790B0478D
:10132000089080203840002818D010490898096893
:10133000C8600C230B9A5A430B4B1B68D218082128
:10134000515E3A4680239A4340231A43104600F0E8
:10135000B1FA0990002801D0099846E7002044E737
:1013600014200000082000000420000010200000CD
:1013700070B506460C46304600F084F805462188D4
:101380000C206843024A126880180181284670BD0B
:1013900004200000F8B504460D4601200C49086001
:1013A000FFF77FFA06460020094908600120094935
:1013B00008602088084908802878084908600020CB
:1013C0000346024601210090FFF75CFA3046F8BD63
:1013D0001C2000000C2000000A200000202000003B
:1013E00001204002704700000146012901D1044854
:1013F0007047022902D1FD208000F9E70020F7E7BD
:101400000CFC0020F0B505460B48504306460B483F
:10141000846807E009488368181BB04202D900209D
:10142000C043F0BD064840890128F3D10020044F95
:1014300078810846F5E70000E01C030000500840F2
:1014400000FC0020F0B505460B48504306460B480B
:10145000846807E009488368181BB04202D900205D
:10146000C043F0BD064800890128F3D00120044F95
:1014700038810846F5E70000E01C030000500840F2
:1014800000FC002070B50546002414E00C206043E9
:101490000C490968085800280BD00C216143094AFF
:1014A000126850582946FEF7CAFF002801D120468D
:1014B00070BD601C04B2044800888442E6DB002052
:1014C000C043F5E7042000000820000008B50F48DD
:1014D0000078002814D00D484078002814D10C4919
:1014E0000C48FFF7ABFB0C48D023FF223D32002114
:1014F00000900846FFF76CFC01200449487003E0A7
:1015000003490448FFF79AFB08BD000000FC0020D7
:101510002C200000282000004000081008B50748D3
:101520000078002808D00648D023FF223D32002151
:1015300000900846FFF74CFC08BD000000FC0020AE
:101540004000081010B504480078002802D0034875
:10155000FFF798FC10BD000000FC002040000810C0
:1015600010B508A10A48FEF7F0FFFFF79DF9FFF755
:1015700045FAFFF7BBFA00F07FF9FFF75FFA0020AA
:1015800010BD00004D302073746172740A000000B9
:1015900000200C40F0B50B30C108C900144F0026E4
:1015A000144A0FE003688B420BD38B4205D95C1AB7
:1015B0004318456830C3083B00E04368136002C02D
:1015C00004E0021D10680028ECD13046002803D149
:1015D0003868002801D00020F0BD064A0648106097
:1015E000064A121AD208D20044C001203860D7E758
:1015F0006420000060200000F4270000F02B0000B1
:1016000070B5044600F02CF8002822DD1249096864
:101610004D88691C104A12685180EA000E49096819
:101620000831501808222146FEF7DEFE0A480068FD
:101630008088401C084909688880074800684088FD
:101640000649884203D100200349096848800120E7
:1016500070BD0020FCE700005C2000007F07000058
:10166000054800688088044A1268D288801A81B2CE
:101670000248401A80B270475C2000007F070000DB
:1016800070B512480088044620340C216143084696
:10169000FFF780FF05460C20604301462846FEF711
:1016A000BCFE0A4800880C214843024608480168ED
:1016B0002846FEF799FE06480068FFF74DFA0448F1
:1016C000056002490C80002070BD00000820000069
:1016D0000420000001460420C0437047FFB583B0DA
:1016E0001746069A0499039800F08EF80290029823
:1016F000002802D0029807B0F0BD0398007840217E
:10170000084000280AD03E4800680C3038600421A8
:101710003B480068C1721024012501E00C2400251B
:1017200063E00A2D02D10020C043E4E72046641C98
:1017300033490968085C019001980607360F80213B
:1017400001980840002814D1701E2040002804D0C1
:10175000701E21468143881900E02046044628482F
:1017600000680019A900785001980007000F0419BB
:1017700039E00198A1280CD1214800680019A9007E
:1017800078501F4909680819FEF752FE401C0419D9
:1017900029E0A007800F002803D0A0088000001DCA
:1017A00000E020460446164800680059009014489E
:1017B000006802192946681CC5B288003A50241DE9
:1017C000701E2040002804D0701E214681438819D5
:1017D00000E0204604460A4800680019A900785035
:1017E000009870430419681CC5B2064800680C30A4
:1017F000844296D30020A900785000BF7BE7000008
:101800001020000014200000F7B505460E461CE02D
:101810000298002802D0FF20F53000E000200246A8
:10182000402112480068FFF7EDFD041E01DA204652
:10183000FEBD402C02DA0020C043F9E70B480068E7
:1018400007680B48874200D100E0E1E700BF074886
:1018500000680079287005480068C0883080034817
:1018600000688068034908600020E1E7102000005C
:101870005555AAAA1420000010B5034903A0FFF78C
:1018800067F8002010BD00003D0C00006765745231
:101890004C534672616D650070B505460E46314683
:1018A000284600F021F80446002C01D0204670BDE7
:1018B0000020FCE7F8B506460F46002508E039464B
:1018C0003046FFF7E9FF0446002C00D102E06D1C12
:1018D000032DF4DB00BF002C02DA00200149086070
:1018E0002046F8BD0C20000070B504460D460E4899
:1018F0000E49096808600D48006804710B480068CB
:10190000C5800B480068094909688860FF22F532E4
:10191000402106480068FFF795FD061E01DA3046B3
:1019200070BD0020FCE700005555AAAA1020000059
:10193000142000000388044803800988418011882E
:101940008180002070470000302000000149896834
:101950000160704700300C407047000001200349CF
:101960000870002048808880C880704700FC0020F4
:1019700000B5FFF7F3FF00BDF8B5054600201A4C8F
:1019800000906068C00405D56846FFF7DFFF606817
:10199000C004F9D46068C004FCD50098134F002837
:1019A00002D0FFF7BDF9F880114E7069FFF7B8F962
:1019B000000910490090884212D8B8800E48FFF7FD
:1019C000C5FF0022002D08D960688005FCD561683C
:1019D0008805FCD4521CAA42F6D30120B061F8BDA0
:1019E00004480090E9E7000000610F4000FC00207F
:1019F00030200000FFFF00004420000070B50748C1
:101A0000446801200003064D044005D0A869002861
:101A100002D10448FFF79AFFAC6170BD00610F402E
:101A2000302000004420000070B505460E46002D11
:101A300001D1401E70BD2846FFF724FD0446002C4E
:101A400019DA002401E0601C04B2114800888442C5
:101A500006DA0C2060430F49096808580028F2D1C3
:101A60000B480088844206D1FFF70AFE314628461B
:101A7000FFF7DAFFDEE70C206043064909680D50E6
:101A80000C20604303490968401846602046D1E7AE
:101A90000820000004200000B81A00000020000008
:101AA000680000000C060000201B000068200000F9
:101AB000880F00001C06000000C00020000000008D
:101AC0000000000000000000000000000000000016
:101AD0000000000000000000000000000000FF0007
:101AE0008802091000100910040014000C00000006
:101AF00000000000000000000000000000000000E6
:101B0000000000003F020000430200004902000004
:101B10005102000000C00020000000000000000092
:04000005000000B93E
:00000001FF
